:100000000C945D000C9485000C9485000C94850084
:100010000C9485000C9485000C9485000C9485004C
:100020000C9485000C9485000C9485000C949D0321
:100030000C9485000C9485000C9485000C9485002C
:100040000C9453030C9485000C9485000C9485004B
:100050000C9485000C9485000C9485000C9485000C
:100060000C9485000C94850000000008000201003B
:100070000003040700000000000000000000000072
:10008000250028002B0000000000240027002A0083
:10009000040404040404040402020202020203032E
:1000A0000303030301020408102040800102040836
:1000B0001020010204081020780511241FBECFEF84
:1000C000D8E0DEBFCDBF11E0A0E0B1E0EEE7FCE09C
:1000D00002C005900D92A433B107D9F721E0A4E343
:1000E000B1E001C01D92A038B207E1F710E0CDE504
:1000F000D0E004C02197FE010E943206CC35D10722
:10010000C9F70E945E040C943D060C94000090E038
:10011000FC01EC55FF4F2491FC01E057FF4F849107
:10012000882399F090E0880F991FFC01EA57FF4F50
:10013000A591B491FC01E458FF4F859194918FB73C
:10014000F894EC91E22BEC938FBF0895CF92DF925D
:10015000EF92FF92DC01A03282E0B8070CF03EC0C3
:10016000B7FD06C0A53BB1052CF0A4EBB0E002C082
:10017000A0E0B0E08091660128E830E06901C81A8B
:10018000D10887FDD394CC0CDD1CCC0CDD1C0D2CD0
:10019000000CEE08FF088091670128E532E0281B7B
:1001A000310987FD3395220F331F220F331FA90119
:1001B000330F660B770B9A01AB012C193D094E09E1
:1001C0005F090E94ED0524EB30E040E050E00E9422
:1001D000C305C20ED31EE41EF51ED6019091650123
:1001E0009C3098F58091660148E850E0481B510921
:1001F00087FD5395440F551F440F551FA417B5078E
:100200008CF08091670128E532E0281B310987FDD9
:100210003395220F331F220F331FAD012A173B07DF
:100220000CF4A90142505109440F551F2FB7F894FF
:10023000892F90E0FC01EE0FFF1F8E0F9F1FFC0126
:10024000EF5BFE4F528341832FBFFF90EF90DF9013
:10025000CF900895CF92DF92EF92FF920F931F936A
:10026000CF93DF936C017A018B01C0E0D0E0CE1513
:10027000DF0589F0D8016D918D01D601ED91FC91DA
:100280000190F081E02DC6010995892B11F47E01C2
:1002900002C02196ECCFC701DF91CF911F910F9142
:1002A000FF90EF90DF90CF90089590E0FC01E85927
:1002B000FF4F3491FC01EC55FF4F2491FC01E057B6
:1002C000FF4FE491EE2309F43BC0332339F133307F
:1002D00091F038F43130A9F0323001F584B58F7DDA
:1002E00012C0373091F03830A1F03430B9F4809139
:1002F00080008F7D03C0809180008F778093800085
:100300000DC084B58F7784BD09C08091B0008F7710
:1003100003C08091B0008F7D8093B000F0E0EE0FBD
:10032000FF1FE458FF4FA591B4918FB7F894EC915B
:10033000611103C020952E2301C02E2B2C938FBF5B
:1003400008953FB7F89480913B0190913C01A091B2
:100350003D01B0913E0126B5A89B05C02F3F19F085
:100360000196A11DB11D3FBFBA2FA92F982F882735
:10037000820F911DA11DB11DBC01CD0142E0660F90
:10038000771F881F991F4A95D1F708958F929F92E2
:10039000AF92BF92CF92DF92EF92FF920E94A101A3
:1003A0004B015C018FE0C82ED12CE12CF12C0E9476
:1003B000A101DC01CB0188199909AA09BB09883E72
:1003C0009340A105B10558F021E0C21AD108E10817
:1003D000F10888EE880E83E0981EA11CB11CC114A0
:1003E000D104E104F10419F7FF90EF90DF90CF9072
:1003F000BF90AF909F908F900895CF93DF93EC01C3
:1004000060E08E810E94550161E08E810E9455015D
:1004100060E08E810E9455018BE891E00197F1F731
:10042000DF91CF910895CF92DF92EF92FF920F93D9
:100430001F93CF93DF937C016C0187E0C80ED11C22
:10044000C0E0D0E0062F10E0B8010C2E02C0759578
:1004500067950A94E2F76170F60181916F010E943D
:1004600055012196C430D10579F7C701DF91CF91AD
:100470001F910F91FF90EF90DF90CF900C94FD01B2
:10048000CF92DF92EF92FF920F931F93CF93DF9360
:10049000EC01F62E642F8C810E9455018D818F3FD7
:1004A00019F060E00E9455018F850F2D10E084FF48
:1004B00025C06E0187E0C80ED11CE12CF12CB801DB
:1004C0000E2C02C0759567950A94E2F76170F601EB
:1004D00081916F010E945501FFEFEF1AFF0A88E03A
:1004E000E816F10461F7CE01DF91CF911F910F91D2
:1004F000FF90EF90DF90CF900C94FD01B80184E065
:10050000759567958A95E1F7CE010E9413026F2DCC
:10051000CE01DF91CF911F910F91FF90EF90DF906F
:10052000CF900C94130241E00E94400281E090E0E1
:10053000089540E00C944002EF92FF920F931F93B6
:10054000CF93DF93EC01623018F08F8588608F873E
:100550006B8B1C8A80E48D8B80E18E8B80E58F8B8A
:100560008C810E9487008D818F3F11F00E9487004F
:100570008E810E9487007E0187E0E80EF11C00E07A
:1005800010E08F8584FD03C084E090E002C088E025
:1005900090E00817190744F4F70181917F010E9448
:1005A00087000F5F1F4FEDCF8BE39DE00197F1F7C1
:1005B00060E08C810E94550160E08E810E945501AF
:1005C0008D818F3F19F060E00E9455016F8564FDB9
:1005D0001DC063E0CE010E9413020BE416E4C801C3
:1005E0000197F1F763E0CE010E941302C801019761
:1005F000F1F763E0CE010E94130283E592E00197D8
:10060000F1F762E0CE010E94130216C06062CE01D3
:100610000E9499028BE496E40197F1F76F8560627E
:10062000CE010E94990283E592E00197F1F76F8570
:100630006062CE010E9499026F856062CE010E94C5
:10064000990284E0888B6CE0CE010E94990261E0FF
:10065000CE010E9499028BE39FE10197F1F782E0BE
:10066000898B66E0CE01DF91CF911F910F91FF90B2
:10067000EF900C949902089580E090E0089500971F
:1006800069F0FC0101900020E9F73197AF01481BA8
:10069000590BBC0188E691E00C942A0180E090E0BF
:1006A00008950E9438061F920F920FB60F921124E0
:1006B0002F933F938F939F93AF93BF938091370175
:1006C00090913801A0913901B0913A0130913601F1
:1006D00023E0230F2D3720F40196A11DB11D05C085
:1006E00026E8230F0296A11DB11D209336018093A9
:1006F000370190933801A0933901B0933A0180916A
:100700003B0190913C01A0913D01B0913E010196C9
:10071000A11DB11D80933B0190933C01A0933D012D
:10072000B0933E01BF91AF919F918F913F912F91D7
:100730000F900FBE0F901F9018951F920F920FB63B
:100740000F9211242F933F934F935F936F937F9357
:100750008F939F93AF93BF93EF93FF938091350156
:1007600087FF05C010928500109284001BC0209165
:100770003501022E000C330B8091340190E02817D4
:10078000390784F480913501082E000C990BFC0187
:10079000EE0FFF1F8E0F9F1FFC01EF5BFE4F80814E
:1007A00086FD15C0809135018F5F809335012091C2
:1007B0003501022E000C330B8091340190E0281794
:1007C0003907C4F4809135018C3064F113C08091F5
:1007D0003501082E000C990BFC01EE0FFF1F8E0F48
:1007E0009F1FFC01EF5BFE4F808160E08F730E94D2
:1007F0005501D8CF80918400909185000496803473
:100800009C4918F480E49CE905C080918400909193
:100810008500049690938900809388008FEF8093E1
:1008200035013BC0209184003091850080913501D5
:10083000082E000C990BFC01EE0FFF1F8E0F9F1F5F
:10084000FC01EF5BFE4F81819281820F931F909399
:1008500089008093880080913501082E000C990B47
:10086000FC01EE0FFF1F8E0F9F1FFC01EF5BFE4F81
:10087000808186FF12C080913501082E000C990BF3
:10088000FC01EE0FFF1F8E0F9F1FFC01EF5BFE4F61
:10089000808161E08F730E945501FF91EF91BF91BC
:1008A000AF919F918F917F916F915F914F913F9108
:1008B0002F910F900FBE0F901F901895789484B5CC
:1008C000826084BD84B5816084BD85B5826085BD4C
:1008D00085B5816085BD80916E00816080936E00DA
:1008E00010928100809181008260809381008091CC
:1008F000810081608093810080918000816080937D
:1009000080008091B10084608093B1008091B0003C
:1009100081608093B00080917A00846080937A0037
:1009200080917A00826080937A0080917A00816061
:1009300080937A0080917A00806880937A00109288
:10094000C1008AE00E9487008DE00E9487008091AC
:1009500065018C3008F050C089E00E9487008091CA
:100960006501E82FF0E09F01220F331FE20FF31F14
:10097000EF5BFE4F9081907C9960908310926601AE
:10098000109267016CE00E9426069CE0899FB001EE
:10099000112440E050E09A01260F371FF901EE0FB5
:1009A000FF1F2E0F3F1FF901EF5BFE4F908196FD59
:1009B00016C04F5F5F4F4C30510569F781110FC072
:1009C0001092800082E08093810010928500109246
:1009D0008400B19A80916F00826080936F00E091F3
:1009E0006501F0E0CF01880F991FE80FF91FEF5B59
:1009F000FE4F80818064808362E088E691E00E94FF
:100A00009C028CE091E00E943F03C0E0D0E004EB48
:100A100010E01092400110923F0180913F019091AF
:100A20004001853B910554F50E94A6000E94C60135
:100A300061E08AE00E94550160E08DE00E9455016E
:100A4000E0917B01E23010F4E15001C0E1E0F0E020
:100A5000E859FE4F6489606888E691E00E94990237
:100A600086E191E00E943F0380913F019091400117
:100A700001969093400180933F01CFCF10934001A6
:100A800000933F0180913F019091400197FD2AC062
:100A90000E94A6000E94C60160E08AE00E94550103
:100AA00061E08DE00E945501E0917B01E23010F49D
:100AB000E15001C0E1E0F0E0E859FE4F6489606870
:100AC00088E691E00E94990285E291E00E943F034E
:100AD00080913F0190914001019790934001809354
:100AE0003F01D0CF209709F494CF0E94000091CF0E
:100AF000CF9310926B0110926A0184E091E0909381
:100B00006901809368018CE080936C01CFEFC09302
:100B10006D018BE080936E0185E080936F0184E02E
:100B20008093700183E08093710182E08093720171
:100B30001092730110927401109275011092760157
:100B40001092770161E088E691E00E949C0280911A
:100B500034018C30A0F491E0980F9093340180938D
:100B6000650190E0FC01EE0FFF1F8E0F9F1FFC013F
:100B7000EF5BFE4F88EB9BE09283818302C0C093C2
:100B80006501CF910895052E97FB1EF400940E94F5
:100B9000DA0557FD07D00E94F50507FC03D04EF497
:100BA0000C94DA0550954095309521953F4F4F4F65
:100BB0005F4F089590958095709561957F4F8F4F09
:100BC0009F4F08950E941706A59F900DB49F900D0A
:100BD000A49F800D911D11240895B7FF0C94E20588
:100BE0000E94E205821B930B0895A1E21A2EAA1B14
:100BF000BB1BFD010DC0AA1FBB1FEE1FFF1FA217CD
:100C0000B307E407F50720F0A21BB30BE40BF50BC9
:100C1000661F771F881F991F1A9469F76095709552
:100C2000809590959B01AC01BD01CF010895A29FD5
:100C3000B001B39FC001A39F700D811D1124911DB0
:100C4000B29F700D811D1124911D0895991B79E0AB
:100C500004C0991F961708F0961B881F7A95C9F74C
:100C600080950895EE0FFF1F0590F491E02D0994F3
:0E0C700081E090E0F8940C943D06F894FFCFDC
:100C7E000000000093022A013C033B03455443202D
:100C8E004148454144004241525249455220434C4D
:100C9E004F5345440042415252494552204F504510
:040CAE004E4544006B
:00000001FF
